{
  "_format": "hh-sol-artifact-1",
  "contractName": "DutchAuction",
  "sourceName": "contracts/ForNext/DutchAuction.sol",
  "abi": [
    {
      "inputs": [
        {
          "internalType": "uint256",
          "name": "_startingPrice",
          "type": "uint256"
        },
        {
          "internalType": "uint256",
          "name": "_discountRate",
          "type": "uint256"
        },
        {
          "internalType": "string",
          "name": "_item",
          "type": "string"
        }
      ],
      "stateMutability": "nonpayable",
      "type": "constructor"
    },
    {
      "anonymous": false,
      "inputs": [
        {
          "indexed": false,
          "internalType": "uint256",
          "name": "price",
          "type": "uint256"
        },
        {
          "indexed": false,
          "internalType": "address",
          "name": "buyer",
          "type": "address"
        }
      ],
      "name": "Bought",
      "type": "event"
    },
    {
      "inputs": [],
      "name": "buy",
      "outputs": [],
      "stateMutability": "payable",
      "type": "function"
    },
    {
      "inputs": [],
      "name": "discountRate",
      "outputs": [
        {
          "internalType": "uint256",
          "name": "",
          "type": "uint256"
        }
      ],
      "stateMutability": "view",
      "type": "function"
    },
    {
      "inputs": [],
      "name": "endsAt",
      "outputs": [
        {
          "internalType": "uint256",
          "name": "",
          "type": "uint256"
        }
      ],
      "stateMutability": "view",
      "type": "function"
    },
    {
      "inputs": [],
      "name": "getPrice",
      "outputs": [
        {
          "internalType": "uint256",
          "name": "",
          "type": "uint256"
        }
      ],
      "stateMutability": "view",
      "type": "function"
    },
    {
      "inputs": [],
      "name": "item",
      "outputs": [
        {
          "internalType": "string",
          "name": "",
          "type": "string"
        }
      ],
      "stateMutability": "view",
      "type": "function"
    },
    {
      "inputs": [],
      "name": "nextBlock",
      "outputs": [],
      "stateMutability": "nonpayable",
      "type": "function"
    },
    {
      "inputs": [],
      "name": "seller",
      "outputs": [
        {
          "internalType": "address payable",
          "name": "",
          "type": "address"
        }
      ],
      "stateMutability": "view",
      "type": "function"
    },
    {
      "inputs": [],
      "name": "startAt",
      "outputs": [
        {
          "internalType": "uint256",
          "name": "",
          "type": "uint256"
        }
      ],
      "stateMutability": "view",
      "type": "function"
    },
    {
      "inputs": [],
      "name": "startingPrice",
      "outputs": [
        {
          "internalType": "uint256",
          "name": "",
          "type": "uint256"
        }
      ],
      "stateMutability": "view",
      "type": "function"
    },
    {
      "inputs": [],
      "name": "stopped",
      "outputs": [
        {
          "internalType": "bool",
          "name": "",
          "type": "bool"
        }
      ],
      "stateMutability": "view",
      "type": "function"
    }
  ],
  "bytecode": "0x6101206040523480156200001257600080fd5b5060405162001467380380620014678339818101604052810190620000389190620002dc565b6202a3008262000049919062000386565b8310156200008e576040517f08c379a0000000000000000000000000000000000000000000000000000000008152600401620000859062000432565b60405180910390fd5b3373ffffffffffffffffffffffffffffffffffffffff1660808173ffffffffffffffffffffffffffffffffffffffff16815250508260a081815250508161010081815250504260c081815250506202a30042620000ec919062000454565b60e081815250508060009081620001049190620006d0565b50505050620007b7565b6000604051905090565b600080fd5b600080fd5b6000819050919050565b620001378162000122565b81146200014357600080fd5b50565b60008151905062000157816200012c565b92915050565b600080fd5b600080fd5b6000601f19601f8301169050919050565b7f4e487b7100000000000000000000000000000000000000000000000000000000600052604160045260246000fd5b620001b28262000167565b810181811067ffffffffffffffff82111715620001d457620001d362000178565b5b80604052505050565b6000620001e96200010e565b9050620001f78282620001a7565b919050565b600067ffffffffffffffff8211156200021a576200021962000178565b5b620002258262000167565b9050602081019050919050565b60005b838110156200025257808201518184015260208101905062000235565b60008484015250505050565b6000620002756200026f84620001fc565b620001dd565b90508281526020810184848401111562000294576200029362000162565b5b620002a184828562000232565b509392505050565b600082601f830112620002c157620002c06200015d565b5b8151620002d38482602086016200025e565b91505092915050565b600080600060608486031215620002f857620002f762000118565b5b6000620003088682870162000146565b93505060206200031b8682870162000146565b925050604084015167ffffffffffffffff8111156200033f576200033e6200011d565b5b6200034d86828701620002a9565b9150509250925092565b7f4e487b7100000000000000000000000000000000000000000000000000000000600052601160045260246000fd5b6000620003938262000122565b9150620003a08362000122565b9250828202620003b08162000122565b91508282048414831517620003ca57620003c962000357565b5b5092915050565b600082825260208201905092915050565b7f707269636520746f6f206c6f7721000000000000000000000000000000000000600082015250565b60006200041a600e83620003d1565b91506200042782620003e2565b602082019050919050565b600060208201905081810360008301526200044d816200040b565b9050919050565b6000620004618262000122565b91506200046e8362000122565b925082820190508082111562000489576200048862000357565b5b92915050565b600081519050919050565b7f4e487b7100000000000000000000000000000000000000000000000000000000600052602260045260246000fd5b60006002820490506001821680620004e257607f821691505b602082108103620004f857620004f76200049a565b5b50919050565b60008190508160005260206000209050919050565b60006020601f8301049050919050565b600082821b905092915050565b600060088302620005627fffffffffffffffffffffffffffffffffffffffffffffffffffffffffffffffff8262000523565b6200056e868362000523565b95508019841693508086168417925050509392505050565b6000819050919050565b6000620005b1620005ab620005a58462000122565b62000586565b62000122565b9050919050565b6000819050919050565b620005cd8362000590565b620005e5620005dc82620005b8565b84845462000530565b825550505050565b600090565b620005fc620005ed565b62000609818484620005c2565b505050565b5b81811015620006315762000625600082620005f2565b6001810190506200060f565b5050565b601f82111562000680576200064a81620004fe565b620006558462000513565b8101602085101562000665578190505b6200067d620006748562000513565b8301826200060e565b50505b505050565b600082821c905092915050565b6000620006a56000198460080262000685565b1980831691505092915050565b6000620006c0838362000692565b9150826002028217905092915050565b620006db826200048f565b67ffffffffffffffff811115620006f757620006f662000178565b5b620007038254620004c9565b6200071082828562000635565b600060209050601f83116001811462000748576000841562000733578287015190505b6200073f8582620006b2565b865550620007af565b601f1984166200075886620004fe565b60005b8281101562000782578489015182556001820191506020850194506020810190506200075b565b86831015620007a257848901516200079e601f89168262000692565b8355505b6001600288020188555050505b505050505050565b60805160a05160c05160e05161010051610c486200081f600039600081816102f301526105fb01526000818161023501526103a30152600081816102c201526105b301526000818161032101526105d701526000818161021101526104f50152610c486000f3fe6080604052600436106100915760003560e01c8063a6f2ae3a11610059578063a6f2ae3a14610159578063c744656514610163578063d6fbf2021461018e578063e6c0e6d5146101b9578063f2a4a82e146101e457610091565b806308551a53146100965780630a09284a146100c157806375f12b21146100ec57806383788fce1461011757806398d5fdca1461012e575b600080fd5b3480156100a257600080fd5b506100ab61020f565b6040516100b891906107db565b60405180910390f35b3480156100cd57600080fd5b506100d6610233565b6040516100e3919061080f565b60405180910390f35b3480156100f857600080fd5b50610101610257565b60405161010e9190610845565b60405180910390f35b34801561012357600080fd5b5061012c61026a565b005b34801561013a57600080fd5b5061014361026c565b604051610150919061080f565b60405180910390f35b610161610351565b005b34801561016f57600080fd5b506101786105b1565b604051610185919061080f565b60405180910390f35b34801561019a57600080fd5b506101a36105d5565b6040516101b0919061080f565b60405180910390f35b3480156101c557600080fd5b506101ce6105f9565b6040516101db919061080f565b60405180910390f35b3480156101f057600080fd5b506101f961061d565b60405161020691906108f0565b60405180910390f35b7f000000000000000000000000000000000000000000000000000000000000000081565b7f000000000000000000000000000000000000000000000000000000000000000081565b600160009054906101000a900460ff1681565b565b6000600160009054906101000a900460ff16156102be576040517f08c379a00000000000000000000000000000000000000000000000000000000081526004016102b59061095e565b60405180910390fd5b60007f0000000000000000000000000000000000000000000000000000000000000000426102ec91906109ad565b90506000817f000000000000000000000000000000000000000000000000000000000000000061031c91906109e1565b9050807f000000000000000000000000000000000000000000000000000000000000000061034a91906109ad565b9250505090565b600160009054906101000a900460ff16156103a1576040517f08c379a00000000000000000000000000000000000000000000000000000000081526004016103989061095e565b60405180910390fd5b7f00000000000000000000000000000000000000000000000000000000000000004210610403576040517f08c379a00000000000000000000000000000000000000000000000000000000081526004016103fa90610a6f565b60405180910390fd5b600061040d61026c565b905061044f6040518060400160405280600781526020017f746f6f206c6f770000000000000000000000000000000000000000000000000081525034836106ab565b80341015610492576040517f08c379a000000000000000000000000000000000000000000000000000000000815260040161048990610adb565b60405180910390fd5b600081346104a091906109ad565b905060008111156104f3573373ffffffffffffffffffffffffffffffffffffffff166108fc829081150290604051600060405180830381858888f193505050501580156104f1573d6000803e3d6000fd5b505b7f000000000000000000000000000000000000000000000000000000000000000073ffffffffffffffffffffffffffffffffffffffff166108fc479081150290604051600060405180830381858888f19350505050158015610559573d6000803e3d6000fd5b5060018060006101000a81548160ff0219169083151502179055507fc54c8cc1c7525b424ec71b685c00d9355581a280488018c22005332ceb2fd40682336040516105a5929190610b1c565b60405180910390a15050565b7f000000000000000000000000000000000000000000000000000000000000000081565b7f000000000000000000000000000000000000000000000000000000000000000081565b7f000000000000000000000000000000000000000000000000000000000000000081565b6000805461062a90610b74565b80601f016020809104026020016040519081016040528092919081815260200182805461065690610b74565b80156106a35780601f10610678576101008083540402835291602001916106a3565b820191906000526020600020905b81548152906001019060200180831161068657829003601f168201915b505050505081565b6107458383836040516024016106c393929190610ba5565b6040516020818303038152906040527fca47c4eb000000000000000000000000000000000000000000000000000000007bffffffffffffffffffffffffffffffffffffffffffffffffffffffff19166020820180517bffffffffffffffffffffffffffffffffffffffffffffffffffffffff838183161783525050505061074a565b505050565b61076181610759610764610785565b63ffffffff16565b50565b60006a636f6e736f6c652e6c6f679050600080835160208501845afa505050565b610790819050919050565b610798610be3565b565b600073ffffffffffffffffffffffffffffffffffffffff82169050919050565b60006107c58261079a565b9050919050565b6107d5816107ba565b82525050565b60006020820190506107f060008301846107cc565b92915050565b6000819050919050565b610809816107f6565b82525050565b60006020820190506108246000830184610800565b92915050565b60008115159050919050565b61083f8161082a565b82525050565b600060208201905061085a6000830184610836565b92915050565b600081519050919050565b600082825260208201905092915050565b60005b8381101561089a57808201518184015260208101905061087f565b60008484015250505050565b6000601f19601f8301169050919050565b60006108c282610860565b6108cc818561086b565b93506108dc81856020860161087c565b6108e5816108a6565b840191505092915050565b6000602082019050818103600083015261090a81846108b7565b905092915050565b7f68617320616c72656164792073746f7070656421000000000000000000000000600082015250565b600061094860148361086b565b915061095382610912565b602082019050919050565b600060208201905081810360008301526109778161093b565b9050919050565b7f4e487b7100000000000000000000000000000000000000000000000000000000600052601160045260246000fd5b60006109b8826107f6565b91506109c3836107f6565b92508282039050818111156109db576109da61097e565b5b92915050565b60006109ec826107f6565b91506109f7836107f6565b9250828202610a05816107f6565b91508282048414831517610a1c57610a1b61097e565b5b5092915050565b7f746f6f206c617465210000000000000000000000000000000000000000000000600082015250565b6000610a5960098361086b565b9150610a6482610a23565b602082019050919050565b60006020820190508181036000830152610a8881610a4c565b9050919050565b7f746f6f206c6f7721000000000000000000000000000000000000000000000000600082015250565b6000610ac560088361086b565b9150610ad082610a8f565b602082019050919050565b60006020820190508181036000830152610af481610ab8565b9050919050565b6000610b068261079a565b9050919050565b610b1681610afb565b82525050565b6000604082019050610b316000830185610800565b610b3e6020830184610b0d565b9392505050565b7f4e487b7100000000000000000000000000000000000000000000000000000000600052602260045260246000fd5b60006002820490506001821680610b8c57607f821691505b602082108103610b9f57610b9e610b45565b5b50919050565b60006060820190508181036000830152610bbf81866108b7565b9050610bce6020830185610800565b610bdb6040830184610800565b949350505050565b7f4e487b7100000000000000000000000000000000000000000000000000000000600052605160045260246000fdfea26469706673582212207ea7d99fd2468a72118176a4b0c51a98b1d56be21029d7d763aaef26e41a5e6964736f6c63430008130033",
  "linkReferences": {},
  "deployedLinkReferences": {}
}